{
  "contractName": "Counter",
  "abi": [
    {
      "inputs": [],
      "stateMutability": "nonpayable",
      "type": "constructor"
    },
    {
      "inputs": [],
      "name": "increment",
      "outputs": [],
      "stateMutability": "nonpayable",
      "type": "function"
    },
    {
      "inputs": [],
      "name": "getCounter",
      "outputs": [
        {
          "internalType": "uint256",
          "name": "",
          "type": "uint256"
        }
      ],
      "stateMutability": "view",
      "type": "function",
      "constant": true
    }
  ],
  "bytecode": "0x6080604052348015600f57600080fd5b506000808190555060ad806100256000396000f3fe6080604052348015600f57600080fd5b506004361060325760003560e01c80638ada066e146037578063d09de08a146053575b600080fd5b603d605b565b6040518082815260200191505060405180910390f35b60596064565b005b60008054905090565b600080815480929190600101919050555056fea2646970667358221220a26854f4769f7b56fd65d91ad370f12fad756d69b671c53809d0c8d545e2593a64736f6c63430007040033",
  "immutableReferences": {},
  "source": "// SPDX-License-Identifier: MIT\npragma solidity >=0.4.22 <0.8.0;\n\ncontract Counter {\n  uint counter;\n\n  constructor() public {\n    counter = 0; // Initialise the counter to 0\n  }\n\n  function increment() public {\n    counter++;\n  }\n\n  function getCounter() public view returns (uint) {\n    return counter;\n  }\n}",
  "sourcePath": "/Users/rick/2021/Layer2/Sokol/Demo_1/contracts/Counter.sol",
  "compiler": {
    "name": "solc",
    "version": "0.7.4+commit.3f05b770.Emscripten.clang"
  },
  "schemaVersion": "3.2.4",
  "updatedAt": "2021-01-21T02:56:41.546Z",
  "networkType": "ethereum",
  "devdoc": {
    "kind": "dev",
    "methods": {},
    "version": 1
  },
  "userdoc": {
    "kind": "user",
    "methods": {},
    "version": 1
  }
}