{
  "contractName": "GetETHUSDPrice",
  "abi": [
    {
      "inputs": [
        {
          "internalType": "uint256",
          "name": "_price",
          "type": "uint256"
        }
      ],
      "name": "setETHUSDPrice",
      "outputs": [],
      "stateMutability": "nonpayable",
      "type": "function"
    },
    {
      "inputs": [],
      "name": "getETHUSDPrice",
      "outputs": [
        {
          "internalType": "uint256",
          "name": "",
          "type": "uint256"
        }
      ],
      "stateMutability": "view",
      "type": "function",
      "constant": true
    }
  ],
  "bytecode": "0x608060405234801561001057600080fd5b5060c78061001f6000396000f3fe6080604052348015600f57600080fd5b506004361060325760003560e01c806369d87ab1146037578063bf4b1990146062575b600080fd5b606060048036036020811015604b57600080fd5b8101908080359060200190929190505050607e565b005b60686088565b6040518082815260200191505060405180910390f35b8060008190555050565b6000805490509056fea264697066735822122068f76ed90706ce71648cae34b3b4149f8f4dc2068644196d23ce2401283bf3b264736f6c634300060b0033",
  "immutableReferences": {},
  "source": "// SPDX-License-Identifier: MIT\npragma solidity >=0.4.22 <0.8.0;\n\ncontract GetETHUSDPrice {\n  uint256 eth_usd_price; // 安全起见建议用SafeMath\n\n    function setETHUSDPrice(uint256 _price) external {\n        eth_usd_price = _price;\n    }\n    function getETHUSDPrice() public view returns(uint256) {\n        return eth_usd_price;\n    }\n}\n\n",
  "sourcePath": "/Users/rick/2021/Layer2/Sokol/Demo_1/contracts/GetETHUSDPrice.sol",
  "compiler": {
    "name": "solc",
    "version": "0.6.11+commit.5ef660b1.Emscripten.clang"
  },
  "schemaVersion": "3.2.4",
  "updatedAt": "2021-01-21T05:23:07.728Z",
  "networkType": "ethereum",
  "devdoc": {
    "kind": "dev",
    "methods": {},
    "version": 1
  },
  "userdoc": {
    "kind": "user",
    "methods": {},
    "version": 1
  }
}